{
  "_format": "hh-sol-artifact-1",
  "contractName": "ClassicCars",
  "sourceName": "contracts/ClassicCars.sol",
  "abi": [
    {
      "inputs": [],
      "stateMutability": "nonpayable",
      "type": "constructor"
    },
    {
      "anonymous": false,
      "inputs": [
        {
          "indexed": true,
          "internalType": "address",
          "name": "owner",
          "type": "address"
        },
        {
          "indexed": true,
          "internalType": "address",
          "name": "approved",
          "type": "address"
        },
        {
          "indexed": true,
          "internalType": "uint256",
          "name": "tokenId",
          "type": "uint256"
        }
      ],
      "name": "Approval",
      "type": "event"
    },
    {
      "anonymous": false,
      "inputs": [
        {
          "indexed": true,
          "internalType": "address",
          "name": "owner",
          "type": "address"
        },
        {
          "indexed": true,
          "internalType": "address",
          "name": "operator",
          "type": "address"
        },
        {
          "indexed": false,
          "internalType": "bool",
          "name": "approved",
          "type": "bool"
        }
      ],
      "name": "ApprovalForAll",
      "type": "event"
    },
    {
      "anonymous": false,
      "inputs": [
        {
          "indexed": true,
          "internalType": "address",
          "name": "from",
          "type": "address"
        },
        {
          "indexed": true,
          "internalType": "address",
          "name": "to",
          "type": "address"
        },
        {
          "indexed": true,
          "internalType": "uint256",
          "name": "tokenId",
          "type": "uint256"
        }
      ],
      "name": "Transfer",
      "type": "event"
    },
    {
      "inputs": [
        {
          "internalType": "address",
          "name": "to",
          "type": "address"
        },
        {
          "internalType": "uint256",
          "name": "tokenId",
          "type": "uint256"
        }
      ],
      "name": "approve",
      "outputs": [],
      "stateMutability": "nonpayable",
      "type": "function"
    },
    {
      "inputs": [
        {
          "internalType": "address",
          "name": "owner",
          "type": "address"
        }
      ],
      "name": "balanceOf",
      "outputs": [
        {
          "internalType": "uint256",
          "name": "",
          "type": "uint256"
        }
      ],
      "stateMutability": "view",
      "type": "function"
    },
    {
      "inputs": [
        {
          "internalType": "uint256",
          "name": "_tokenId",
          "type": "uint256"
        }
      ],
      "name": "buyClassicCar",
      "outputs": [],
      "stateMutability": "payable",
      "type": "function"
    },
    {
      "inputs": [
        {
          "internalType": "uint256",
          "name": "tokenId",
          "type": "uint256"
        }
      ],
      "name": "getApproved",
      "outputs": [
        {
          "internalType": "address",
          "name": "",
          "type": "address"
        }
      ],
      "stateMutability": "view",
      "type": "function"
    },
    {
      "inputs": [
        {
          "internalType": "uint256",
          "name": "_tokenId",
          "type": "uint256"
        },
        {
          "internalType": "address",
          "name": "_receiver",
          "type": "address"
        }
      ],
      "name": "giftClassicCar",
      "outputs": [],
      "stateMutability": "nonpayable",
      "type": "function"
    },
    {
      "inputs": [
        {
          "internalType": "address",
          "name": "owner",
          "type": "address"
        },
        {
          "internalType": "address",
          "name": "operator",
          "type": "address"
        }
      ],
      "name": "isApprovedForAll",
      "outputs": [
        {
          "internalType": "bool",
          "name": "",
          "type": "bool"
        }
      ],
      "stateMutability": "view",
      "type": "function"
    },
    {
      "inputs": [
        {
          "internalType": "uint256",
          "name": "_tokenId",
          "type": "uint256"
        }
      ],
      "name": "isCarInMarket",
      "outputs": [
        {
          "internalType": "bool",
          "name": "",
          "type": "bool"
        }
      ],
      "stateMutability": "view",
      "type": "function"
    },
    {
      "inputs": [
        {
          "internalType": "uint256",
          "name": "_tokenId",
          "type": "uint256"
        }
      ],
      "name": "isCarSold",
      "outputs": [
        {
          "internalType": "bool",
          "name": "",
          "type": "bool"
        }
      ],
      "stateMutability": "view",
      "type": "function"
    },
    {
      "inputs": [],
      "name": "name",
      "outputs": [
        {
          "internalType": "string",
          "name": "",
          "type": "string"
        }
      ],
      "stateMutability": "view",
      "type": "function"
    },
    {
      "inputs": [
        {
          "internalType": "address",
          "name": "",
          "type": "address"
        },
        {
          "internalType": "address",
          "name": "",
          "type": "address"
        },
        {
          "internalType": "uint256",
          "name": "",
          "type": "uint256"
        },
        {
          "internalType": "bytes",
          "name": "",
          "type": "bytes"
        }
      ],
      "name": "onERC721Received",
      "outputs": [
        {
          "internalType": "bytes4",
          "name": "",
          "type": "bytes4"
        }
      ],
      "stateMutability": "pure",
      "type": "function"
    },
    {
      "inputs": [
        {
          "internalType": "uint256",
          "name": "tokenId",
          "type": "uint256"
        }
      ],
      "name": "ownerOf",
      "outputs": [
        {
          "internalType": "address",
          "name": "",
          "type": "address"
        }
      ],
      "stateMutability": "view",
      "type": "function"
    },
    {
      "inputs": [
        {
          "internalType": "uint256",
          "name": "_tokenId",
          "type": "uint256"
        }
      ],
      "name": "readClassicCars",
      "outputs": [
        {
          "internalType": "address payable",
          "name": "",
          "type": "address"
        },
        {
          "internalType": "string",
          "name": "",
          "type": "string"
        },
        {
          "internalType": "string",
          "name": "",
          "type": "string"
        },
        {
          "internalType": "string",
          "name": "",
          "type": "string"
        },
        {
          "internalType": "uint256",
          "name": "",
          "type": "uint256"
        },
        {
          "internalType": "uint256",
          "name": "",
          "type": "uint256"
        }
      ],
      "stateMutability": "view",
      "type": "function"
    },
    {
      "inputs": [
        {
          "internalType": "uint256",
          "name": "_tokenId",
          "type": "uint256"
        },
        {
          "internalType": "uint256",
          "name": "_price",
          "type": "uint256"
        }
      ],
      "name": "resellClassicCar",
      "outputs": [],
      "stateMutability": "nonpayable",
      "type": "function"
    },
    {
      "inputs": [
        {
          "internalType": "address",
          "name": "to",
          "type": "address"
        },
        {
          "internalType": "string",
          "name": "_uri",
          "type": "string"
        }
      ],
      "name": "safeMint",
      "outputs": [],
      "stateMutability": "nonpayable",
      "type": "function"
    },
    {
      "inputs": [
        {
          "internalType": "address",
          "name": "from",
          "type": "address"
        },
        {
          "internalType": "address",
          "name": "to",
          "type": "address"
        },
        {
          "internalType": "uint256",
          "name": "tokenId",
          "type": "uint256"
        }
      ],
      "name": "safeTransferFrom",
      "outputs": [],
      "stateMutability": "nonpayable",
      "type": "function"
    },
    {
      "inputs": [
        {
          "internalType": "address",
          "name": "from",
          "type": "address"
        },
        {
          "internalType": "address",
          "name": "to",
          "type": "address"
        },
        {
          "internalType": "uint256",
          "name": "tokenId",
          "type": "uint256"
        },
        {
          "internalType": "bytes",
          "name": "data",
          "type": "bytes"
        }
      ],
      "name": "safeTransferFrom",
      "outputs": [],
      "stateMutability": "nonpayable",
      "type": "function"
    },
    {
      "inputs": [
        {
          "internalType": "address",
          "name": "operator",
          "type": "address"
        },
        {
          "internalType": "bool",
          "name": "approved",
          "type": "bool"
        }
      ],
      "name": "setApprovalForAll",
      "outputs": [],
      "stateMutability": "nonpayable",
      "type": "function"
    },
    {
      "inputs": [
        {
          "internalType": "bytes4",
          "name": "interfaceId",
          "type": "bytes4"
        }
      ],
      "name": "supportsInterface",
      "outputs": [
        {
          "internalType": "bool",
          "name": "",
          "type": "bool"
        }
      ],
      "stateMutability": "view",
      "type": "function"
    },
    {
      "inputs": [],
      "name": "symbol",
      "outputs": [
        {
          "internalType": "string",
          "name": "",
          "type": "string"
        }
      ],
      "stateMutability": "view",
      "type": "function"
    },
    {
      "inputs": [
        {
          "internalType": "uint256",
          "name": "index",
          "type": "uint256"
        }
      ],
      "name": "tokenByIndex",
      "outputs": [
        {
          "internalType": "uint256",
          "name": "",
          "type": "uint256"
        }
      ],
      "stateMutability": "view",
      "type": "function"
    },
    {
      "inputs": [
        {
          "internalType": "address",
          "name": "owner",
          "type": "address"
        },
        {
          "internalType": "uint256",
          "name": "index",
          "type": "uint256"
        }
      ],
      "name": "tokenOfOwnerByIndex",
      "outputs": [
        {
          "internalType": "uint256",
          "name": "",
          "type": "uint256"
        }
      ],
      "stateMutability": "view",
      "type": "function"
    },
    {
      "inputs": [
        {
          "internalType": "uint256",
          "name": "tokenId",
          "type": "uint256"
        }
      ],
      "name": "tokenURI",
      "outputs": [
        {
          "internalType": "string",
          "name": "",
          "type": "string"
        }
      ],
      "stateMutability": "view",
      "type": "function"
    },
    {
      "inputs": [],
      "name": "totalSupply",
      "outputs": [
        {
          "internalType": "uint256",
          "name": "",
          "type": "uint256"
        }
      ],
      "stateMutability": "view",
      "type": "function"
    },
    {
      "inputs": [
        {
          "internalType": "address",
          "name": "from",
          "type": "address"
        },
        {
          "internalType": "address",
          "name": "to",
          "type": "address"
        },
        {
          "internalType": "uint256",
          "name": "tokenId",
          "type": "uint256"
        }
      ],
      "name": "transferFrom",
      "outputs": [],
      "stateMutability": "nonpayable",
      "type": "function"
    },
    {
      "inputs": [
        {
          "internalType": "string",
          "name": "_name",
          "type": "string"
        },
        {
          "internalType": "string",
          "name": "_image",
          "type": "string"
        },
        {
          "internalType": "string",
          "name": "_description",
          "type": "string"
        },
        {
          "internalType": "uint256",
          "name": "_price",
          "type": "uint256"
        }
      ],
      "name": "uploadClassicCar",
      "outputs": [],
      "stateMutability": "nonpayable",
      "type": "function"
    }
  ],
  "bytecode": "0x60806040523480156200001157600080fd5b506040518060400160405280600b81526020017f436c6173736963436172730000000000000000000000000000000000000000008152506040518060400160405280600581526020017f43434e4654000000000000000000000000000000000000000000000000000000815250816000908051906020019062000096929190620000b8565b508060019080519060200190620000af929190620000b8565b505050620001cd565b828054620000c69062000168565b90600052602060002090601f016020900481019282620000ea576000855562000136565b82601f106200010557805160ff191683800117855562000136565b8280016001018555821562000136579182015b828111156200013557825182559160200191906001019062000118565b5b50905062000145919062000149565b5090565b5b80821115620001645760008160009055506001016200014a565b5090565b600060028204905060018216806200018157607f821691505b602082108114156200019857620001976200019e565b5b50919050565b7f4e487b7100000000000000000000000000000000000000000000000000000000600052602260045260246000fd5b6149a080620001dd6000396000f3fe6080604052600436106101665760003560e01c806342842e0e116100d157806395d89b411161008a578063c87b56dd11610064578063c87b56dd1461058e578063d204c45e146105cb578063d5fd6fb7146105f4578063e985e9c51461061d57610166565b806395d89b4114610511578063a22cb4651461053c578063b88d4fde1461056557610166565b806342842e0e146103d35780634f6ccce7146103fc5780636169fea8146104395780636352211e1461045557806370a082311461049257806387be3973146104cf57610166565b80631aea6df4116101235780631aea6df4146102a15780631e403798146102ca57806323b872dd146102f3578063279464cd1461031c5780632ad9eb77146103595780632f745c591461039657610166565b806301ffc9a71461016b57806306fdde03146101a8578063081812fc146101d3578063095ea7b314610210578063150b7a021461023957806318160ddd14610276575b600080fd5b34801561017757600080fd5b50610192600480360381019061018d9190613353565b61065a565b60405161019f9190613a91565b60405180910390f35b3480156101b457600080fd5b506101bd61066c565b6040516101ca9190613ac7565b60405180910390f35b3480156101df57600080fd5b506101fa60048036038101906101f59190613450565b6106fe565b60405161020791906139b4565b60405180910390f35b34801561021c57600080fd5b5061023760048036038101906102329190613317565b610744565b005b34801561024557600080fd5b50610260600480360381019061025b919061318c565b61085c565b60405161026d9190613aac565b60405180910390f35b34801561028257600080fd5b5061028b610871565b6040516102989190613e49565b60405180910390f35b3480156102ad57600080fd5b506102c860048036038101906102c391906133a5565b61087e565b005b3480156102d657600080fd5b506102f160048036038101906102ec9190613479565b610a48565b005b3480156102ff57600080fd5b5061031a6004803603810190610315919061313d565b610caa565b005b34801561032857600080fd5b50610343600480360381019061033e9190613450565b610d0a565b6040516103509190613a91565b60405180910390f35b34801561036557600080fd5b50610380600480360381019061037b9190613450565b610d37565b60405161038d9190613a91565b60405180910390f35b3480156103a257600080fd5b506103bd60048036038101906103b89190613317565b610d64565b6040516103ca9190613e49565b60405180910390f35b3480156103df57600080fd5b506103fa60048036038101906103f5919061313d565b610e09565b005b34801561040857600080fd5b50610423600480360381019061041e9190613450565b610e29565b6040516104309190613e49565b60405180910390f35b610453600480360381019061044e9190613450565b610ec0565b005b34801561046157600080fd5b5061047c60048036038101906104779190613450565b61123b565b60405161048991906139b4565b60405180910390f35b34801561049e57600080fd5b506104b960048036038101906104b491906130d8565b6112ed565b6040516104c69190613e49565b60405180910390f35b3480156104db57600080fd5b506104f660048036038101906104f19190613450565b6113a5565b604051610508969594939291906139cf565b60405180910390f35b34801561051d57600080fd5b5061052661160f565b6040516105339190613ac7565b60405180910390f35b34801561054857600080fd5b50610563600480360381019061055e9190613287565b6116a1565b005b34801561057157600080fd5b5061058c6004803603810190610587919061320c565b6116b7565b005b34801561059a57600080fd5b506105b560048036038101906105b09190613450565b611719565b6040516105c29190613ac7565b60405180910390f35b3480156105d757600080fd5b506105f260048036038101906105ed91906132c3565b61172b565b005b34801561060057600080fd5b5061061b600480360381019061061691906134b5565b6117b4565b005b34801561062957600080fd5b50610644600480360381019061063f9190613101565b611991565b6040516106519190613a91565b60405180910390f35b600061066582611a25565b9050919050565b60606000805461067b906140b1565b80601f01602080910402602001604051908101604052809291908181526020018280546106a7906140b1565b80156106f45780601f106106c9576101008083540402835291602001916106f4565b820191906000526020600020905b8154815290600101906020018083116106d757829003601f168201915b5050505050905090565b600061070982611a9f565b6004600083815260200190815260200160002060009054906101000a900473ffffffffffffffffffffffffffffffffffffffff169050919050565b600061074f8261123b565b90508073ffffffffffffffffffffffffffffffffffffffff168373ffffffffffffffffffffffffffffffffffffffff1614156107c0576040517f08c379a00000000000000000000000000000000000000000000000000000000081526004016107b790613d69565b60405180910390fd5b8073ffffffffffffffffffffffffffffffffffffffff166107df611aea565b73ffffffffffffffffffffffffffffffffffffffff16148061080e575061080d81610808611aea565b611991565b5b61084d576040517f08c379a000000000000000000000000000000000000000000000000000000000815260040161084490613ca9565b60405180910390fd5b6108578383611af2565b505050565b600063150b7a0260e01b905095945050505050565b6000600880549050905090565b600081116108c1576040517f08c379a00000000000000000000000000000000000000000000000000000000081526004016108b890613d29565b60405180910390fd5b6000806001905060006108d2610871565b905060006108e0600b611bab565b90506040518061010001604052803373ffffffffffffffffffffffffffffffffffffffff1681526020018981526020018781526020018881526020018281526020018681526020018515158152602001841515815250600c600084815260200190815260200160002060008201518160000160006101000a81548173ffffffffffffffffffffffffffffffffffffffff021916908373ffffffffffffffffffffffffffffffffffffffff16021790555060208201518160010190805190602001906109ac929190612eb2565b5060408201518160020190805190602001906109c9929190612eb2565b5060608201518160030190805190602001906109e6929190612eb2565b506080820151816004015560a0820151816005015560c08201518160060160006101000a81548160ff02191690831515021790555060e08201518160060160016101000a81548160ff0219169083151502179055509050505050505050505050565b600c6000838152602001908152602001600020600401548214610aa0576040517f08c379a0000000000000000000000000000000000000000000000000000000008152600401610a9790613bc9565b60405180910390fd5b600c600083815260200190815260200160002060000160009054906101000a900473ffffffffffffffffffffffffffffffffffffffff1673ffffffffffffffffffffffffffffffffffffffff163373ffffffffffffffffffffffffffffffffffffffff1614610b44576040517f08c379a0000000000000000000000000000000000000000000000000000000008152600401610b3b90613d09565b60405180910390fd5b8073ffffffffffffffffffffffffffffffffffffffff163373ffffffffffffffffffffffffffffffffffffffff161415610bb3576040517f08c379a0000000000000000000000000000000000000000000000000000000008152600401610baa90613c89565b60405180910390fd5b600073ffffffffffffffffffffffffffffffffffffffff168173ffffffffffffffffffffffffffffffffffffffff1614610ca65780600c600084815260200190815260200160002060000160006101000a81548173ffffffffffffffffffffffffffffffffffffffff021916908373ffffffffffffffffffffffffffffffffffffffff160217905550610c47338284610e09565b6001600c600084815260200190815260200160002060060160006101000a81548160ff0219169083151502179055506000600c600084815260200190815260200160002060060160016101000a81548160ff0219169083151502179055505b5050565b610cbb610cb5611aea565b82611bb9565b610cfa576040517f08c379a0000000000000000000000000000000000000000000000000000000008152600401610cf190613e09565b60405180910390fd5b610d05838383611c4e565b505050565b6000600c600083815260200190815260200160002060060160019054906101000a900460ff169050919050565b6000600c600083815260200190815260200160002060060160009054906101000a900460ff169050919050565b6000610d6f836112ed565b8210610db0576040517f08c379a0000000000000000000000000000000000000000000000000000000008152600401610da790613b09565b60405180910390fd5b600660008473ffffffffffffffffffffffffffffffffffffffff1673ffffffffffffffffffffffffffffffffffffffff168152602001908152602001600020600083815260200190815260200160002054905092915050565b610e24838383604051806020016040528060008152506116b7565b505050565b6000610e33610871565b8210610e74576040517f08c379a0000000000000000000000000000000000000000000000000000000008152600401610e6b90613de9565b60405180910390fd5b60088281548110610eae577f4e487b7100000000000000000000000000000000000000000000000000000000600052603260045260246000fd5b90600052602060002001549050919050565b6000600c60008381526020019081526020016000206005015490506000600c600084815260200190815260200160002060060160009054906101000a900460ff1690506000600c600085815260200190815260200160002060060160019054906101000a900460ff169050600c600085815260200190815260200160002060000160009054906101000a900473ffffffffffffffffffffffffffffffffffffffff1673ffffffffffffffffffffffffffffffffffffffff163373ffffffffffffffffffffffffffffffffffffffff161415610fd0576040517f08c379a0000000000000000000000000000000000000000000000000000000008152600401610fc790613c49565b60405180910390fd5b8115611011576040517f08c379a000000000000000000000000000000000000000000000000000000000815260040161100890613da9565b60405180910390fd5b82341015611054576040517f08c379a000000000000000000000000000000000000000000000000000000000815260040161104b90613ce9565b60405180910390fd5b600c60008581526020019081526020016000206004015484146110ac576040517f08c379a00000000000000000000000000000000000000000000000000000000081526004016110a390613ae9565b60405180910390fd5b806110ec576040517f08c379a00000000000000000000000000000000000000000000000000000000081526004016110e390613dc9565b60405180910390fd5b60006110f78561123b565b9050611104813387611c4e565b600c600086815260200190815260200160002060000160009054906101000a900473ffffffffffffffffffffffffffffffffffffffff1673ffffffffffffffffffffffffffffffffffffffff166108fc349081150290604051600060405180830381858888f19350505050158015611180573d6000803e3d6000fd5b5033600c600087815260200190815260200160002060000160006101000a81548173ffffffffffffffffffffffffffffffffffffffff021916908373ffffffffffffffffffffffffffffffffffffffff1602179055506001600c600087815260200190815260200160002060060160006101000a81548160ff0219169083151502179055506000600c600087815260200190815260200160002060060160016101000a81548160ff0219169083151502179055505050505050565b6000806002600084815260200190815260200160002060009054906101000a900473ffffffffffffffffffffffffffffffffffffffff169050600073ffffffffffffffffffffffffffffffffffffffff168173ffffffffffffffffffffffffffffffffffffffff1614156112e4576040517f08c379a00000000000000000000000000000000000000000000000000000000081526004016112db90613d49565b60405180910390fd5b80915050919050565b60008073ffffffffffffffffffffffffffffffffffffffff168273ffffffffffffffffffffffffffffffffffffffff16141561135e576040517f08c379a000000000000000000000000000000000000000000000000000000000815260040161135590613c29565b60405180910390fd5b600360008373ffffffffffffffffffffffffffffffffffffffff1673ffffffffffffffffffffffffffffffffffffffff168152602001908152602001600020549050919050565b60006060806060600080600c600088815260200190815260200160002060000160009054906101000a900473ffffffffffffffffffffffffffffffffffffffff16600c6000898152602001908152602001600020600101600c60008a8152602001908152602001600020600201600c60008b8152602001908152602001600020600301600c60008c815260200190815260200160002060040154600c60008d815260200190815260200160002060050154848054611462906140b1565b80601f016020809104026020016040519081016040528092919081815260200182805461148e906140b1565b80156114db5780601f106114b0576101008083540402835291602001916114db565b820191906000526020600020905b8154815290600101906020018083116114be57829003601f168201915b505050505094508380546114ee906140b1565b80601f016020809104026020016040519081016040528092919081815260200182805461151a906140b1565b80156115675780601f1061153c57610100808354040283529160200191611567565b820191906000526020600020905b81548152906001019060200180831161154a57829003601f168201915b5050505050935082805461157a906140b1565b80601f01602080910402602001604051908101604052809291908181526020018280546115a6906140b1565b80156115f35780601f106115c8576101008083540402835291602001916115f3565b820191906000526020600020905b8154815290600101906020018083116115d657829003601f168201915b5050505050925095509550955095509550955091939550919395565b60606001805461161e906140b1565b80601f016020809104026020016040519081016040528092919081815260200182805461164a906140b1565b80156116975780601f1061166c57610100808354040283529160200191611697565b820191906000526020600020905b81548152906001019060200180831161167a57829003601f168201915b5050505050905090565b6116b36116ac611aea565b8383611eb5565b5050565b6116c86116c2611aea565b83611bb9565b611707576040517f08c379a00000000000000000000000000000000000000000000000000000000081526004016116fe90613e09565b60405180910390fd5b61171384848484612022565b50505050565b60606117248261207e565b9050919050565b6000611737600b611bab565b9050600c6000828152602001908152602001600020600401548114611791576040517f08c379a000000000000000000000000000000000000000000000000000000000815260040161178890613e29565b60405180910390fd5b61179b8382612191565b6117a581836121af565b6117af600b612223565b505050565b600c600083815260200190815260200160002060000160009054906101000a900473ffffffffffffffffffffffffffffffffffffffff1673ffffffffffffffffffffffffffffffffffffffff163373ffffffffffffffffffffffffffffffffffffffff1614611858576040517f08c379a000000000000000000000000000000000000000000000000000000000815260040161184f90613b89565b60405180910390fd5b600c60008381526020019081526020016000206004015482146118b0576040517f08c379a00000000000000000000000000000000000000000000000000000000081526004016118a790613d89565b60405180910390fd5b600c600083815260200190815260200160002060060160019054906101000a900460ff1615611914576040517f08c379a000000000000000000000000000000000000000000000000000000000815260040161190b90613ba9565b60405180910390fd5b6000600c600084815260200190815260200160002060060160006101000a81548160ff0219169083151502179055506001600c600084815260200190815260200160002060060160016101000a81548160ff02191690831515021790555080600c6000848152602001908152602001600020600501819055505050565b6000600560008473ffffffffffffffffffffffffffffffffffffffff1673ffffffffffffffffffffffffffffffffffffffff16815260200190815260200160002060008373ffffffffffffffffffffffffffffffffffffffff1673ffffffffffffffffffffffffffffffffffffffff16815260200190815260200160002060009054906101000a900460ff16905092915050565b60007f780e9d63000000000000000000000000000000000000000000000000000000007bffffffffffffffffffffffffffffffffffffffffffffffffffffffff1916827bffffffffffffffffffffffffffffffffffffffffffffffffffffffff19161480611a985750611a9782612239565b5b9050919050565b611aa88161231b565b611ae7576040517f08c379a0000000000000000000000000000000000000000000000000000000008152600401611ade90613d49565b60405180910390fd5b50565b600033905090565b816004600083815260200190815260200160002060006101000a81548173ffffffffffffffffffffffffffffffffffffffff021916908373ffffffffffffffffffffffffffffffffffffffff160217905550808273ffffffffffffffffffffffffffffffffffffffff16611b658361123b565b73ffffffffffffffffffffffffffffffffffffffff167f8c5be1e5ebec7d5bd14f71427d1e84f3dd0314c0f7b2291e5b200ac8c7c3b92560405160405180910390a45050565b600081600001549050919050565b600080611bc58361123b565b90508073ffffffffffffffffffffffffffffffffffffffff168473ffffffffffffffffffffffffffffffffffffffff161480611c075750611c068185611991565b5b80611c4557508373ffffffffffffffffffffffffffffffffffffffff16611c2d846106fe565b73ffffffffffffffffffffffffffffffffffffffff16145b91505092915050565b8273ffffffffffffffffffffffffffffffffffffffff16611c6e8261123b565b73ffffffffffffffffffffffffffffffffffffffff1614611cc4576040517f08c379a0000000000000000000000000000000000000000000000000000000008152600401611cbb90613b49565b60405180910390fd5b600073ffffffffffffffffffffffffffffffffffffffff168273ffffffffffffffffffffffffffffffffffffffff161415611d34576040517f08c379a0000000000000000000000000000000000000000000000000000000008152600401611d2b90613be9565b60405180910390fd5b611d3f838383612387565b611d4a600082611af2565b6001600360008573ffffffffffffffffffffffffffffffffffffffff1673ffffffffffffffffffffffffffffffffffffffff1681526020019081526020016000206000828254611d9a9190613fb5565b925050819055506001600360008473ffffffffffffffffffffffffffffffffffffffff1673ffffffffffffffffffffffffffffffffffffffff1681526020019081526020016000206000828254611df19190613f2e565b92505081905550816002600083815260200190815260200160002060006101000a81548173ffffffffffffffffffffffffffffffffffffffff021916908373ffffffffffffffffffffffffffffffffffffffff160217905550808273ffffffffffffffffffffffffffffffffffffffff168473ffffffffffffffffffffffffffffffffffffffff167fddf252ad1be2c89b69c2b068fc378daa952ba7f163c4a11628f55a4df523b3ef60405160405180910390a4611eb0838383612397565b505050565b8173ffffffffffffffffffffffffffffffffffffffff168373ffffffffffffffffffffffffffffffffffffffff161415611f24576040517f08c379a0000000000000000000000000000000000000000000000000000000008152600401611f1b90613c09565b60405180910390fd5b80600560008573ffffffffffffffffffffffffffffffffffffffff1673ffffffffffffffffffffffffffffffffffffffff16815260200190815260200160002060008473ffffffffffffffffffffffffffffffffffffffff1673ffffffffffffffffffffffffffffffffffffffff16815260200190815260200160002060006101000a81548160ff0219169083151502179055508173ffffffffffffffffffffffffffffffffffffffff168373ffffffffffffffffffffffffffffffffffffffff167f17307eab39ab6107e8899845ad3d59bd9653f200f220920489ca2b5937696c31836040516120159190613a91565b60405180910390a3505050565b61202d848484611c4e565b6120398484848461239c565b612078576040517f08c379a000000000000000000000000000000000000000000000000000000000815260040161206f90613b29565b60405180910390fd5b50505050565b606061208982611a9f565b6000600a600084815260200190815260200160002080546120a9906140b1565b80601f01602080910402602001604051908101604052809291908181526020018280546120d5906140b1565b80156121225780601f106120f757610100808354040283529160200191612122565b820191906000526020600020905b81548152906001019060200180831161210557829003601f168201915b505050505090506000612133612533565b905060008151141561214957819250505061218c565b60008251111561217e578082604051602001612166929190613990565b6040516020818303038152906040529250505061218c565b6121878461254a565b925050505b919050565b6121ab8282604051806020016040528060008152506125b2565b5050565b6121b88261231b565b6121f7576040517f08c379a00000000000000000000000000000000000000000000000000000000081526004016121ee90613c69565b60405180910390fd5b80600a6000848152602001908152602001600020908051906020019061221e929190612eb2565b505050565b6001816000016000828254019250508190555050565b60007f80ac58cd000000000000000000000000000000000000000000000000000000007bffffffffffffffffffffffffffffffffffffffffffffffffffffffff1916827bffffffffffffffffffffffffffffffffffffffffffffffffffffffff1916148061230457507f5b5e139f000000000000000000000000000000000000000000000000000000007bffffffffffffffffffffffffffffffffffffffffffffffffffffffff1916827bffffffffffffffffffffffffffffffffffffffffffffffffffffffff1916145b8061231457506123138261260d565b5b9050919050565b60008073ffffffffffffffffffffffffffffffffffffffff166002600084815260200190815260200160002060009054906101000a900473ffffffffffffffffffffffffffffffffffffffff1673ffffffffffffffffffffffffffffffffffffffff1614159050919050565b612392838383612677565b505050565b505050565b60006123bd8473ffffffffffffffffffffffffffffffffffffffff1661278b565b15612526578373ffffffffffffffffffffffffffffffffffffffff1663150b7a026123e6611aea565b8786866040518563ffffffff1660e01b81526004016124089493929190613a45565b602060405180830381600087803b15801561242257600080fd5b505af192505050801561245357506040513d601f19601f82011682018060405250810190612450919061337c565b60015b6124d6573d8060008114612483576040519150601f19603f3d011682016040523d82523d6000602084013e612488565b606091505b506000815114156124ce576040517f08c379a00000000000000000000000000000000000000000000000000000000081526004016124c590613b29565b60405180910390fd5b805181602001fd5b63150b7a0260e01b7bffffffffffffffffffffffffffffffffffffffffffffffffffffffff1916817bffffffffffffffffffffffffffffffffffffffffffffffffffffffff19161491505061252b565b600190505b949350505050565b606060405180602001604052806000815250905090565b606061255582611a9f565b600061255f612533565b9050600081511161257f57604051806020016040528060008152506125aa565b80612589846127ae565b60405160200161259a929190613990565b6040516020818303038152906040525b915050919050565b6125bc838361295b565b6125c9600084848461239c565b612608576040517f08c379a00000000000000000000000000000000000000000000000000000000081526004016125ff90613b29565b60405180910390fd5b505050565b60007f01ffc9a7000000000000000000000000000000000000000000000000000000007bffffffffffffffffffffffffffffffffffffffffffffffffffffffff1916827bffffffffffffffffffffffffffffffffffffffffffffffffffffffff1916149050919050565b612682838383612b35565b600073ffffffffffffffffffffffffffffffffffffffff168373ffffffffffffffffffffffffffffffffffffffff1614156126c5576126c081612b3a565b612704565b8173ffffffffffffffffffffffffffffffffffffffff168373ffffffffffffffffffffffffffffffffffffffff1614612703576127028382612b83565b5b5b600073ffffffffffffffffffffffffffffffffffffffff168273ffffffffffffffffffffffffffffffffffffffff1614156127475761274281612cf0565b612786565b8273ffffffffffffffffffffffffffffffffffffffff168273ffffffffffffffffffffffffffffffffffffffff1614612785576127848282612e33565b5b5b505050565b6000808273ffffffffffffffffffffffffffffffffffffffff163b119050919050565b606060008214156127f6576040518060400160405280600181526020017f30000000000000000000000000000000000000000000000000000000000000008152509050612956565b600082905060005b6000821461282857808061281190614114565b915050600a826128219190613f84565b91506127fe565b60008167ffffffffffffffff81111561286a577f4e487b7100000000000000000000000000000000000000000000000000000000600052604160045260246000fd5b6040519080825280601f01601f19166020018201604052801561289c5781602001600182028036833780820191505090505b5090505b6000851461294f576001826128b59190613fb5565b9150600a856128c4919061415d565b60306128d09190613f2e565b60f81b81838151811061290c577f4e487b7100000000000000000000000000000000000000000000000000000000600052603260045260246000fd5b60200101907effffffffffffffffffffffffffffffffffffffffffffffffffffffffffffff1916908160001a905350600a856129489190613f84565b94506128a0565b8093505050505b919050565b600073ffffffffffffffffffffffffffffffffffffffff168273ffffffffffffffffffffffffffffffffffffffff1614156129cb576040517f08c379a00000000000000000000000000000000000000000000000000000000081526004016129c290613cc9565b60405180910390fd5b6129d48161231b565b15612a14576040517f08c379a0000000000000000000000000000000000000000000000000000000008152600401612a0b90613b69565b60405180910390fd5b612a2060008383612387565b6001600360008473ffffffffffffffffffffffffffffffffffffffff1673ffffffffffffffffffffffffffffffffffffffff1681526020019081526020016000206000828254612a709190613f2e565b92505081905550816002600083815260200190815260200160002060006101000a81548173ffffffffffffffffffffffffffffffffffffffff021916908373ffffffffffffffffffffffffffffffffffffffff160217905550808273ffffffffffffffffffffffffffffffffffffffff16600073ffffffffffffffffffffffffffffffffffffffff167fddf252ad1be2c89b69c2b068fc378daa952ba7f163c4a11628f55a4df523b3ef60405160405180910390a4612b3160008383612397565b5050565b505050565b6008805490506009600083815260200190815260200160002081905550600881908060018154018082558091505060019003906000526020600020016000909190919091505550565b60006001612b90846112ed565b612b9a9190613fb5565b9050600060076000848152602001908152602001600020549050818114612c7f576000600660008673ffffffffffffffffffffffffffffffffffffffff1673ffffffffffffffffffffffffffffffffffffffff168152602001908152602001600020600084815260200190815260200160002054905080600660008773ffffffffffffffffffffffffffffffffffffffff1673ffffffffffffffffffffffffffffffffffffffff168152602001908152602001600020600084815260200190815260200160002081905550816007600083815260200190815260200160002081905550505b6007600084815260200190815260200160002060009055600660008573ffffffffffffffffffffffffffffffffffffffff1673ffffffffffffffffffffffffffffffffffffffff16815260200190815260200160002060008381526020019081526020016000206000905550505050565b60006001600880549050612d049190613fb5565b9050600060096000848152602001908152602001600020549050600060088381548110612d5a577f4e487b7100000000000000000000000000000000000000000000000000000000600052603260045260246000fd5b906000526020600020015490508060088381548110612da2577f4e487b7100000000000000000000000000000000000000000000000000000000600052603260045260246000fd5b906000526020600020018190555081600960008381526020019081526020016000208190555060096000858152602001908152602001600020600090556008805480612e17577f4e487b7100000000000000000000000000000000000000000000000000000000600052603160045260246000fd5b6001900381819060005260206000200160009055905550505050565b6000612e3e836112ed565b905081600660008573ffffffffffffffffffffffffffffffffffffffff1673ffffffffffffffffffffffffffffffffffffffff168152602001908152602001600020600083815260200190815260200160002081905550806007600084815260200190815260200160002081905550505050565b828054612ebe906140b1565b90600052602060002090601f016020900481019282612ee05760008555612f27565b82601f10612ef957805160ff1916838001178555612f27565b82800160010185558215612f27579182015b82811115612f26578251825591602001919060010190612f0b565b5b509050612f349190612f38565b5090565b5b80821115612f51576000816000905550600101612f39565b5090565b6000612f68612f6384613e89565b613e64565b905082815260208101848484011115612f8057600080fd5b612f8b84828561406f565b509392505050565b6000612fa6612fa184613eba565b613e64565b905082815260208101848484011115612fbe57600080fd5b612fc984828561406f565b509392505050565b600081359050612fe08161490e565b92915050565b600081359050612ff581614925565b92915050565b60008135905061300a8161493c565b92915050565b60008151905061301f8161493c565b92915050565b60008083601f84011261303757600080fd5b8235905067ffffffffffffffff81111561305057600080fd5b60208301915083600182028301111561306857600080fd5b9250929050565b600082601f83011261308057600080fd5b8135613090848260208601612f55565b91505092915050565b600082601f8301126130aa57600080fd5b81356130ba848260208601612f93565b91505092915050565b6000813590506130d281614953565b92915050565b6000602082840312156130ea57600080fd5b60006130f884828501612fd1565b91505092915050565b6000806040838503121561311457600080fd5b600061312285828601612fd1565b925050602061313385828601612fd1565b9150509250929050565b60008060006060848603121561315257600080fd5b600061316086828701612fd1565b935050602061317186828701612fd1565b9250506040613182868287016130c3565b9150509250925092565b6000806000806000608086880312156131a457600080fd5b60006131b288828901612fd1565b95505060206131c388828901612fd1565b94505060406131d4888289016130c3565b935050606086013567ffffffffffffffff8111156131f157600080fd5b6131fd88828901613025565b92509250509295509295909350565b6000806000806080858703121561322257600080fd5b600061323087828801612fd1565b945050602061324187828801612fd1565b9350506040613252878288016130c3565b925050606085013567ffffffffffffffff81111561326f57600080fd5b61327b8782880161306f565b91505092959194509250565b6000806040838503121561329a57600080fd5b60006132a885828601612fd1565b92505060206132b985828601612fe6565b9150509250929050565b600080604083850312156132d657600080fd5b60006132e485828601612fd1565b925050602083013567ffffffffffffffff81111561330157600080fd5b61330d85828601613099565b9150509250929050565b6000806040838503121561332a57600080fd5b600061333885828601612fd1565b9250506020613349858286016130c3565b9150509250929050565b60006020828403121561336557600080fd5b600061337384828501612ffb565b91505092915050565b60006020828403121561338e57600080fd5b600061339c84828501613010565b91505092915050565b600080600080608085870312156133bb57600080fd5b600085013567ffffffffffffffff8111156133d557600080fd5b6133e187828801613099565b945050602085013567ffffffffffffffff8111156133fe57600080fd5b61340a87828801613099565b935050604085013567ffffffffffffffff81111561342757600080fd5b61343387828801613099565b9250506060613444878288016130c3565b91505092959194509250565b60006020828403121561346257600080fd5b6000613470848285016130c3565b91505092915050565b6000806040838503121561348c57600080fd5b600061349a858286016130c3565b92505060206134ab85828601612fd1565b9150509250929050565b600080604083850312156134c857600080fd5b60006134d6858286016130c3565b92505060206134e7858286016130c3565b9150509250929050565b6134fa81613ffb565b82525050565b61350981613fe9565b82525050565b6135188161400d565b82525050565b61352781614019565b82525050565b600061353882613eeb565b6135428185613f01565b935061355281856020860161407e565b61355b8161424a565b840191505092915050565b600061357182613ef6565b61357b8185613f12565b935061358b81856020860161407e565b6135948161424a565b840191505092915050565b60006135aa82613ef6565b6135b48185613f23565b93506135c481856020860161407e565b80840191505092915050565b60006135dd601283613f12565b91506135e88261425b565b602082019050919050565b6000613600602b83613f12565b915061360b82614284565b604082019050919050565b6000613623603283613f12565b915061362e826142d3565b604082019050919050565b6000613646602583613f12565b915061365182614322565b604082019050919050565b6000613669601c83613f12565b915061367482614371565b602082019050919050565b600061368c601c83613f12565b91506136978261439a565b602082019050919050565b60006136af601e83613f12565b91506136ba826143c3565b602082019050919050565b60006136d2602983613f12565b91506136dd826143ec565b604082019050919050565b60006136f5602483613f12565b91506137008261443b565b604082019050919050565b6000613718601983613f12565b91506137238261448a565b602082019050919050565b600061373b602983613f12565b9150613746826144b3565b604082019050919050565b600061375e602483613f12565b915061376982614502565b604082019050919050565b6000613781602e83613f12565b915061378c82614551565b604082019050919050565b60006137a4602b83613f12565b91506137af826145a0565b604082019050919050565b60006137c7603e83613f12565b91506137d2826145ef565b604082019050919050565b60006137ea602083613f12565b91506137f58261463e565b602082019050919050565b600061380d604483613f12565b915061381882614667565b606082019050919050565b6000613830602283613f12565b915061383b826146dc565b604082019050919050565b6000613853601883613f12565b915061385e8261472b565b602082019050919050565b6000613876601883613f12565b915061388182614754565b602082019050919050565b6000613899602183613f12565b91506138a48261477d565b604082019050919050565b60006138bc601283613f12565b91506138c7826147cc565b602082019050919050565b60006138df601083613f12565b91506138ea826147f5565b602082019050919050565b6000613902601b83613f12565b915061390d8261481e565b602082019050919050565b6000613925602c83613f12565b915061393082614847565b604082019050919050565b6000613948602e83613f12565b915061395382614896565b604082019050919050565b600061396b600d83613f12565b9150613976826148e5565b602082019050919050565b61398a81614065565b82525050565b600061399c828561359f565b91506139a8828461359f565b91508190509392505050565b60006020820190506139c96000830184613500565b92915050565b600060c0820190506139e460008301896134f1565b81810360208301526139f68188613566565b90508181036040830152613a0a8187613566565b90508181036060830152613a1e8186613566565b9050613a2d6080830185613981565b613a3a60a0830184613981565b979650505050505050565b6000608082019050613a5a6000830187613500565b613a676020830186613500565b613a746040830185613981565b8181036060830152613a86818461352d565b905095945050505050565b6000602082019050613aa6600083018461350f565b92915050565b6000602082019050613ac1600083018461351e565b92915050565b60006020820190508181036000830152613ae18184613566565b905092915050565b60006020820190508181036000830152613b02816135d0565b9050919050565b60006020820190508181036000830152613b22816135f3565b9050919050565b60006020820190508181036000830152613b4281613616565b9050919050565b60006020820190508181036000830152613b6281613639565b9050919050565b60006020820190508181036000830152613b828161365c565b9050919050565b60006020820190508181036000830152613ba28161367f565b9050919050565b60006020820190508181036000830152613bc2816136a2565b9050919050565b60006020820190508181036000830152613be2816136c5565b9050919050565b60006020820190508181036000830152613c02816136e8565b9050919050565b60006020820190508181036000830152613c228161370b565b9050919050565b60006020820190508181036000830152613c428161372e565b9050919050565b60006020820190508181036000830152613c6281613751565b9050919050565b60006020820190508181036000830152613c8281613774565b9050919050565b60006020820190508181036000830152613ca281613797565b9050919050565b60006020820190508181036000830152613cc2816137ba565b9050919050565b60006020820190508181036000830152613ce2816137dd565b9050919050565b60006020820190508181036000830152613d0281613800565b9050919050565b60006020820190508181036000830152613d2281613823565b9050919050565b60006020820190508181036000830152613d4281613846565b9050919050565b60006020820190508181036000830152613d6281613869565b9050919050565b60006020820190508181036000830152613d828161388c565b9050919050565b60006020820190508181036000830152613da2816138af565b9050919050565b60006020820190508181036000830152613dc2816138d2565b9050919050565b60006020820190508181036000830152613de2816138f5565b9050919050565b60006020820190508181036000830152613e0281613918565b9050919050565b60006020820190508181036000830152613e228161393b565b9050919050565b60006020820190508181036000830152613e428161395e565b9050919050565b6000602082019050613e5e6000830184613981565b92915050565b6000613e6e613e7f565b9050613e7a82826140e3565b919050565b6000604051905090565b600067ffffffffffffffff821115613ea457613ea361421b565b5b613ead8261424a565b9050602081019050919050565b600067ffffffffffffffff821115613ed557613ed461421b565b5b613ede8261424a565b9050602081019050919050565b600081519050919050565b600081519050919050565b600082825260208201905092915050565b600082825260208201905092915050565b600081905092915050565b6000613f3982614065565b9150613f4483614065565b9250827fffffffffffffffffffffffffffffffffffffffffffffffffffffffffffffffff03821115613f7957613f7861418e565b5b828201905092915050565b6000613f8f82614065565b9150613f9a83614065565b925082613faa57613fa96141bd565b5b828204905092915050565b6000613fc082614065565b9150613fcb83614065565b925082821015613fde57613fdd61418e565b5b828203905092915050565b6000613ff482614045565b9050919050565b600061400682614045565b9050919050565b60008115159050919050565b60007fffffffff0000000000000000000000000000000000000000000000000000000082169050919050565b600073ffffffffffffffffffffffffffffffffffffffff82169050919050565b6000819050919050565b82818337600083830152505050565b60005b8381101561409c578082015181840152602081019050614081565b838111156140ab576000848401525b50505050565b600060028204905060018216806140c957607f821691505b602082108114156140dd576140dc6141ec565b5b50919050565b6140ec8261424a565b810181811067ffffffffffffffff8211171561410b5761410a61421b565b5b80604052505050565b600061411f82614065565b91507fffffffffffffffffffffffffffffffffffffffffffffffffffffffffffffffff8214156141525761415161418e565b5b600182019050919050565b600061416882614065565b915061417383614065565b925082614183576141826141bd565b5b828206905092915050565b7f4e487b7100000000000000000000000000000000000000000000000000000000600052601160045260246000fd5b7f4e487b7100000000000000000000000000000000000000000000000000000000600052601260045260246000fd5b7f4e487b7100000000000000000000000000000000000000000000000000000000600052602260045260246000fd5b7f4e487b7100000000000000000000000000000000000000000000000000000000600052604160045260246000fd5b6000601f19601f8301169050919050565b7f43617220646f6573206e6f742065786973740000000000000000000000000000600082015250565b7f455243373231456e756d657261626c653a206f776e657220696e646578206f7560008201527f74206f6620626f756e6473000000000000000000000000000000000000000000602082015250565b7f4552433732313a207472616e7366657220746f206e6f6e20455243373231526560008201527f63656976657220696d706c656d656e7465720000000000000000000000000000602082015250565b7f4552433732313a207472616e736665722066726f6d20696e636f72726563742060008201527f6f776e6572000000000000000000000000000000000000000000000000000000602082015250565b7f4552433732313a20746f6b656e20616c7265616479206d696e74656400000000600082015250565b7f4f6e6c79206f776e65722063616e20726573656c6c2061206361727300000000600082015250565b7f43617220616c726561647920696e20746865206d61726b6574706c6163650000600082015250565b7f43617220776974682074686520737065636966696320746f6b656e20646f657360008201527f6e27742065786973740000000000000000000000000000000000000000000000602082015250565b7f4552433732313a207472616e7366657220746f20746865207a65726f2061646460008201527f7265737300000000000000000000000000000000000000000000000000000000602082015250565b7f4552433732313a20617070726f766520746f2063616c6c657200000000000000600082015250565b7f4552433732313a2061646472657373207a65726f206973206e6f74206120766160008201527f6c6964206f776e65720000000000000000000000000000000000000000000000602082015250565b7f536f7272792c20796f752063616e27742062757920796f7572206d696e74656460008201527f2063617200000000000000000000000000000000000000000000000000000000602082015250565b7f45524337323155524953746f726167653a2055524920736574206f66206e6f6e60008201527f6578697374656e7420746f6b656e000000000000000000000000000000000000602082015250565b7f536f7272792c2062757420796f752063616e2774206769667420796f7572736560008201527f6c6620796f757220636172000000000000000000000000000000000000000000602082015250565b7f4552433732313a20617070726f76652063616c6c6572206973206e6f7420746f60008201527f6b656e206f776e6572206e6f7220617070726f76656420666f7220616c6c0000602082015250565b7f4552433732313a206d696e7420746f20746865207a65726f2061646472657373600082015250565b7f506c65617365207375626d6974207468652061736b696e67206361722070726960008201527f636520696e206f7264657220746f20636f6d706c65746520746865207075726360208201527f6861736500000000000000000000000000000000000000000000000000000000604082015250565b7f536f7272792c206f6e6c7920636172206f776e65722063616e2067696674206360008201527f6172000000000000000000000000000000000000000000000000000000000000602082015250565b7f5072696365206d757374206265206174206c6561737420310000000000000000600082015250565b7f4552433732313a20696e76616c696420746f6b656e2049440000000000000000600082015250565b7f4552433732313a20617070726f76616c20746f2063757272656e74206f776e6560008201527f7200000000000000000000000000000000000000000000000000000000000000602082015250565b7f63617273206e6f7420617661696c61626c650000000000000000000000000000600082015250565b7f43617220616c726561647920736f6c6400000000000000000000000000000000600082015250565b7f436c617373696320636172206e6f7420757020666f722073616c650000000000600082015250565b7f455243373231456e756d657261626c653a20676c6f62616c20696e646578206f60008201527f7574206f6620626f756e64730000000000000000000000000000000000000000602082015250565b7f4552433732313a2063616c6c6572206973206e6f7420746f6b656e206f776e6560008201527f72206e6f7220617070726f766564000000000000000000000000000000000000602082015250565b7f436172206e6f7420666f756e6400000000000000000000000000000000000000600082015250565b61491781613fe9565b811461492257600080fd5b50565b61492e8161400d565b811461493957600080fd5b50565b61494581614019565b811461495057600080fd5b50565b61495c81614065565b811461496757600080fd5b5056fea26469706673582212203ff8e4cfd87ba454fa43371bc2d4959a72d886f28688b7fa24dc2d43cbb557b164736f6c63430008040033",
  "linkReferences": {},
  "deployedLinkReferences": {}
}